:040000004DEF00F0D0
:100008005282FACF08F0FBCF09F0D9CF0AF0DACF45
:100018000BF0F3CF0CF0F4CF0DF0F2B8F2A203D04E
:10002800E0EC7BF028D0F2B6F2A003D09EEC7BF097
:1000380022D0F2BAF2A403D02DEC7BF01CD0F2ACA3
:100048001AD09DBA9EAA0CD001D815D00500FA6E18
:1000580003018E51FD6E8F51FE6EFF6AFA50120039
:100068009DB09EA003D080EC77F005D07DB27EA233
:1000780002D0ADEC7AF00DC0F4FF0CC0F3FF0BC05A
:10008800DAFF0AC0D9FF09C0FBFF08C0FAFF529285
:100098001100C4EF58F0000E0101506F040E00016A
:1000A80090198F11D8A404D0840E906F100E8F6F02
:1000B8008FC077F190C078F18FC079F190C07AF154
:1000C800F80E0101816F000E806FFF0E836FE00E46
:1000D800826F8AC08CF18BC08DF18CC08EF18DC07F
:1000E8008FF18EC088F1896B8CC11FF08DC120F013
:1000F8008EC121F08FC122F0030E8825236E000ED9
:100108008921246E8FC025F090C026F003EC4CF0B6
:100118008CC11FF08DC120F08EC121F08FC122F05B
:1001280088C123F089C124F08FC025F090C026F043
:1001380003EC4CF0FD0E010188258A6FFF0E892122
:100148008B6F8AC11DF08BC11EF0000E206E030E4E
:100158001F6E12EC79F0D8901E321D32D8901E32E4
:100168001D321DC06BF11EC06CF1FDC291F00F0E67
:10017800000191170201FD390F0B0A0DF350000120
:1001880091250101876FFEC291F00F0E00019117B2
:100198000201FE390F0B0A0DF350000191250101F0
:1001A800846F84510E6E0F6A0EBE0F06000E116E1C
:1001B8000C0E106EC7EC6EF00E500101846F845166
:1001C8001D6E1E6A1DBE1E06000E206E1E0E1F6EC0
:1001D80012EC79F01DC091F01EC092F00101875118
:1001E8000E6E0F6A0EBE0F06000E116E020E106E16
:1001F800D1EC6CF00E50000191250101906F0F5069
:10020800000192210101916F8CC100F18DC101F1B2
:100218008EC10AF18FC10BF190C113F091C114F096
:10022800BEEC69F013C01DF014C01EF06BC11FF0C6
:100238006CC120F012EC79F01EC01DF01E6A1DBEC4
:100248001E6801018C511D24026F8D511E20036F01
:1002580090C11BF091C11CF047EC79F01BC01DF058
:100268001CC01EF06BC11FF06CC120F012EC79F0BD
:100278001EC01DF01E6A1DBE1E681D5001018E5D48
:100288000C6F1E508F590D6F03011951010102198E
:1002980011E103011A5101010319D8A40BD003017C
:1002A8000F5101010C1906E10301105101010D194B
:1002B800D8B4F0D00301F851D8A4BAD017C360F06D
:1002C80018C361F00DC362F00EC363F019C364F084
:1002D8001AC365F00FC366F010C367F0000E000183
:1002E800696F000E686FA7EC5CF003010D510F5D9C
:1002F8000001916F03010E5110590001926F030123
:100308001751195D0001936F030118511A59000123
:10031800946F9151935D92519459D8B045D0010E84
:10032800030117250001606F000E03011821000169
:10033800616F0DC362F00EC363F0010E030119254E
:100348000001646F000E03011A210001656F0FC3DD
:1003580066F010C367F0000E696F000E686FA7ECB7
:100368005CF0FF0E030117250001606FFF0E03010B
:1003780018210001616F0DC362F00EC363F0FF0E18
:10038800030119250001646FFF0E03011A21000102
:10039800656F0FC366F010C367F0000E696F000E3B
:1003A800686FA7EC5CF044D017C360F018C361F025
:1003B800010E03010D250001626F000E03010E21DD
:1003C8000001636F19C364F01AC365F0010E0301DD
:1003D8000F250001666F000E030110210001676FF1
:1003E800000E696F000E686FA7EC5CF017C360F031
:1003F80018C361F0FF0E03010D250001626FFF0EA7
:1004080003010E210001636F19C364F01AC365F07C
:10041800FF0E03010F250001666FFF0E0301102177
:100428000001676F000E696F000E686FA7EC5CF043
:10043800000E0101926F9251800A7E0FD8B02AD027
:100448009251020D000EF324D96E010EF420DA6EDB
:100458009251020D170EF324E16E030EF420E26EA2
:10046800DECFE6FFDDCFE5FF9251020D0A0EF32441
:10047800D96E010EF420DA6E9251020D0D0EF3249E
:10048800E16E030EF420E26EDECFE6FFDDCFE5FF7E
:10049800922BD1D7000120EE01F08851D92689513D
:1004A800DA22DE5003016E19D8B4E5D3000120EE3C
:1004B80001F08851D9268951DA22DF5003016E6F85
:1004C800000120EE01F08851D9268951DA22DF5047
:1004D800916F0F0E911720EE01F08851D92689519E
:1004E800DA22DF50926F92390F0B0A0DF3509125E3
:1004F8000101876F000120EE02F08851D926895149
:10050800DA22DF50916F0F0E911720EE02F088511A
:10051800D9268951DA22DF50926F92390F0B0A0DD2
:10052800F35091250101846FFB0E8A25676FFF0E3A
:100538008B21686F87511D6E1E6A1DBE1E06000E38
:10054800206E060E1F6E12EC79F01DC090F11EC0D1
:1005580091F190C113F091C114F0BEEC69F013C091
:100568001DF014C01EF067C11FF068C120F012EC26
:1005780079F01EC01DF01E6A1DBE1E6801018C5157
:100588001D242A6F8D511E202B6F90C11BF091C125
:100598001CF047EC79F01BC01DF01CC01EF067C1B1
:1005A8001FF068C120F012EC79F01EC01DF01E6A21
:1005B8001DBE1E681D5001018E5D346F1E508F597F
:1005C800356F000E706F030E6F6F87511D6E1E6AB8
:1005D8001DBE1E06000E206E060E1F6E12EC79F070
:1005E8005A0E1D240101906F000E1E20916F90C1BC
:1005F80013F091C114F0BEEC69F013C01DF014C0E3
:100608001EF06FC11FF070C120F012EC79F01EC00F
:100618001DF01E6A1DBE1E6801018C511D242C6F21
:100628008D511E202D6F90C11BF091C11CF047EC1D
:1006380079F01BC01DF01CC01EF06FC11FF070C107
:1006480020F012EC79F01EC01DF01E6A1DBE1E6857
:100658001D5001018E5D366F1E508F59376F8CC14A
:1006680091F08DC192F0D890000191379237010135
:100678002C510001915D01012E6F2D5100019259FD
:1006880001012F6F8EC191F08FC192F0D8900001B7
:1006980091379237010136510001915D0101386FA0
:1006A8003751000192590101396F000E726F0A0E1D
:1006B800716F87511D6E1E6A1DBE1E06000E206ECC
:1006C800060E1F6E12EC79F0B40E1D240101906F16
:1006D800000E1E20916F90C113F091C114F0BEEC72
:1006E80069F013C01DF014C01EF071C11FF072C173
:1006F80020F012EC79F01EC01DF01E6A1DBE1E68A7
:1007080001018C511D24306F8D511E20316F90C115
:100718001BF091C11CF047EC79F01BC01DF01CC008
:100728001EF071C11FF072C120F012EC79F01EC0EA
:100738001DF01E6A1DBE1E681D5001018E5D3A6FB8
:100748001E508F593B6F000120EE02F08851D926C8
:100758008951DA22DE5003016F19D8B4DED10101C4
:1007680084510E6E0F6A0EBE0F06000E116E0C0E2F
:10077800106EC7EC6EF00E500101846F84511D6E2F
:100788001E6A1DBE1E06000E206E1E0E1F6E12EC87
:1007980079F01DC091F01EC092F0010187510E6ED4
:1007A8000F6A0EBE0F06000E116E020E106ED1EC0F
:1007B8006CF00E50000191250101906F0F5000015F
:1007C80092210101916F8AC11DF08BC11EF0000EAC
:1007D800206E070E1F6E12EC79F01DC023F01EC0AC
:1007E80024F0000E266E0A0E256E66EC73F023C008
:1007F80069F124C06AF18CC13CF18DC13DF18EC113
:1008080046F18FC147F190C113F091C114F0BEECCD
:1008180069F013C01DF014C01EF069C11FF06AC151
:1008280020F012EC79F01EC01DF01E6A1DBE1E6875
:1008380001018C511D243E6F8D511E203F6F90C1C8
:100848001BF091C11CF047EC79F01BC01DF01CC0D7
:100858001EF069C11FF06AC120F012EC79F01EC0C9
:100868001DF01E6A1DBE1E681D5001018E5D486F79
:100878001E508F59496F000E746F040E736F5A0E15
:100888009025136E000E9121146EBEEC69F013C012
:100898001DF014C01EF073C11FF074C120F012ECDB
:1008A80079F01EC01DF01E6A1DBE1E6801018C5124
:1008B8001D24406F8D511E20416F5A0E90251B6ECE
:1008C800000E91211C6E47EC79F01BC01DF01CC076
:1008D8001EF073C11FF074C120F012EC79F01EC035
:1008E8001DF01E6A1DBE1E681D5001018E5D4A6FF7
:1008F8001E508F594B6F8CC191F08DC192F0D890DA
:10090800000191379237010140510001915D0101C9
:10091800426F4151000192590101436F8EC191F01C
:100928008FC192F0D89000019137923701014A5156
:100938000001915D01014C6F4B5100019259010179
:100948004D6F000E766F0A0E756FB40E9025136EFC
:10095800000E9121146EBEEC69F013C01DF014C096
:100968001EF075C11FF076C120F012EC79F01EC0A0
:100978001DF01E6A1DBE1E6801018C511D24446FA6
:100988008D511E20456FB40E90251B6E000E9121CF
:100998001C6E47EC79F01BC01DF01CC01EF075C121
:1009A8001FF076C120F012EC79F01EC01DF01E6A0F
:1009B8001DBE1E681D5001018E5D4E6F1E508F5961
:1009C8004F6F55C327F056C328F04BC329F04CC3CB
:1009D8002AF057C32BF058C32CF04DC32DF04EC34B
:1009E8002EF059C32FF05AC330F04FC331F050C323
:1009F80032F0000E346E000E336E8CEC31F055C3BD
:100A08006AF056C36BF04BC36CF04CC36DF057C320
:100A18006EF058C36FF04DC370F04EC371F059C3F8
:100A280072F05AC373F04FC374F050C375F0000EE0
:100A38000001776F000E766F8EEC6CF05BC327F0C9
:100A48005CC328F051C329F052C32AF057C32BF0D6
:100A580058C32CF04DC32DF04EC32EF059C32FF0C0
:100A68005AC330F04FC331F050C332F0000E346E29
:100A7800000E336E8CEC31F05BC36AF05CC36BF034
:100A880051C36CF052C36DF057C36EF058C36FF08A
:100A98004DC370F04EC371F059C372F05AC373F06E
:100AA8004FC374F050C375F0000E0001776F000E4D
:100AB800766F8EEC6CF0000E0101926F9251800AF5
:100AC8007B0FD8B02AD09251020D3C0EF324D96E78
:100AD800010EF420DA6E9251020D530EF324E16EEA
:100AE800030EF420E26EDECFE6FFDDCFE5FF925184
:100AF800020D460EF324D96E010EF420DA6E9251DF
:100B0800020D490EF324E16E030EF420E26EDECFEF
:100B1800E6FFDDCFE5FF922BD1D741C327F042C3D3
:100B280028F037C329F038C32AF043C32BF044C355
:100B38002CF039C32DF03AC32EF045C32FF046C32D
:100B480030F03BC331F03CC332F0000E346E000E7F
:100B5800336E8CEC31F041C36AF042C36BF037C39B
:100B68006CF038C36DF043C36EF044C36FF039C303
:100B780070F03AC371F045C372F046C373F03BC3DB
:100B880074F03CC375F0000E0001776F000E766FAD
:100B98008EEC6CF047C327F048C328F03DC329F01A
:100BA8003EC32AF043C32BF044C32CF039C32DF0C5
:100BB8003AC32EF045C32FF046C330F03BC331F0A3
:100BC8003CC332F0000E346E000E336E8CEC31F004
:100BD80047C36AF048C36BF03DC36CF03EC36DF089
:100BE80043C36EF044C36FF039C370F03AC371F079
:100BF80045C372F046C373F03BC374F03CC375F051
:100C0800000E0001776F000E766F8EEC6CF0010E0F
:100C18000101506F000E926F9251800A7B0FD8B07D
:100C28002AD09251020D280EF324D96E010EF42019
:100C3800DA6E9251020D3F0EF324E16E030EF4209A
:100C4800E26EDECFE6FFDDCFE5FF9251020D320EF8
:100C5800F324D96E010EF420DA6E9251020D350E8E
:100C6800F324E16E030EF420E26EDECFE6FFDDCF63
:100C7800E5FF922BD1D701017B6988C0D9FF89C0D4
:100C8800DAFF03016D51DE18D8B4AFD188C0D9FF9F
:100C980089C0DAFFDF500001916F0F0E911788C0ED
:100CA800D9FF89C0DAFFDF50926F92390F0B0A0D16
:100CB800F350912501017B6FFC0E8A25656FFF0EAD
:100CC8008B21666F7B511D6E1E6A1DBE1E06000EAF
:100CD800206E060E1F6E12EC79F01DC090F11EC03A
:100CE80091F18CC114F18DC115F18EC11EF18FC126
:100CF8001FF190C113F091C114F0BEEC69F013C05C
:100D08001DF014C01EF065C11FF066C120F012EC82
:100D180079F01EC01DF01E6A1DBE1E6801018C51AF
:100D28001D24166F8D511E20176F90C11BF091C1A5
:100D38001CF047EC79F01BC01DF01CC01EF065C10B
:100D48001FF066C120F012EC79F01EC01DF01E6A7B
:100D58001DBE1E681D5001018E5D206F1E508F59EB
:100D6800216F000E866F140E856F7B511D6E1E6AF3
:100D78001DBE1E06000E206E060E1F6E12EC79F0C8
:100D8800B40E1D240101906F000E1E20916F90C1BA
:100D980013F091C114F0BEEC69F013C01DF014C03B
:100DA8001EF085C11FF086C120F012EC79F01EC03C
:100DB8001DF01E6A1DBE1E6801018C511D24186F8E
:100DC8008D511E20196F90C11BF091C11CF047EC8A
:100DD80079F01BC01DF01CC01EF085C11FF086C134
:100DE80020F012EC79F01EC01DF01E6A1DBE1E68B0
:100DF8001D5001018E5D226F1E508F59236F060E04
:100E08009025136E000E9121146EBEEC69F013C08C
:100E18001DF014C01EF085C11FF086C120F012EC31
:100E280079F01EC01DF01E6A1DBE1E6801018C519E
:100E38001D241A6F8D511E201B6F060E90251B6EE8
:100E4800000E91211C6E47EC79F01BC01DF01CC0F0
:100E58001EF085C11FF086C120F012EC79F01EC08B
:100E68001DF01E6A1DBE1E681D5001018E5D246F97
:100E78001E508F59256FFA0E9025136EFF0E912183
:100E8800146EBEEC69F013C01DF014C01EF085C1CD
:100E98001FF086C120F012EC79F01EC01DF01E6A0A
:100EA8001DBE1E6801018C511D241C6F8D511E2012
:100EB8001D6FFA0E90251B6EFF0E91211C6E47ECDC
:100EC80079F01BC01DF01CC01EF085C11FF086C143
:100ED80020F012EC79F01EC01DF01E6A1DBE1E68BF
:100EE8001D5001018E5D266F1E508F59276F88C0D7
:100EF800D9FF89C0DAFFDF5003016D6F2DC360F0A1
:100F08002EC361F023C362F024C363F02FC364F0DF
:100F180030C365F025C366F026C367F0000E0001F4
:100F2800696F000E686FA7EC5CF02BC360F02CC3F0
:100F380061F021C362F022C363F031C364F032C3AD
:100F480065F027C366F028C367F0000E0001696FDB
:100F5800000E686FA7EC5CF02BC360F02CC361F047
:100F680021C362F022C363F033C364F034C365F075
:100F780029C366F02AC367F0000E0001696F000EEE
:100F8800686FA7EC5CF0000E0101926F9251800A25
:100F98007B0FD8B02AD09251020D140EF324D96ECB
:100FA800010EF420DA6E9251020D2B0EF324E16E3D
:100FB800030EF420E26EDECFE6FFDDCFE5FF9251AF
:100FC800020D1E0EF324D96E010EF420DA6E925132
:100FD800020D210EF324E16E030EF420E26EDECF43
:100FE800E6FFDDCFE5FF922BD1D7FD0E0101882565
:100FF8008A6FFF0E89218B6FF60E8A256D6FFF0EA3
:101008008B216E6F000E926F9251800A440FD8B0F8
:101018006AD192511D6E1E6A1DBE1E06000E206EFC
:10102800060E1F6E12EC79F01DC090F11EC091F1F2
:1010380090C113F091C114F0BEEC69F013C01DF01B
:1010480014C01EF088C11FF089C120F012EC79F09D
:101058001EC01DF01E6A1DBE1E6801018C511D2494
:10106800536F8D511E20546F90C11BF091C11CF01D
:1010780047EC79F01BC01DF01CC01EF088C11FF0A2
:1010880089C120F012EC79F01EC01DF01E6A1DBE49
:101098001E681D5001018E5D5D6F1E508F595E6F79
:1010A80090C113F091C114F0BEEC69F013C01DF0AB
:1010B80014C01EF08AC11FF08BC120F012EC79F029
:1010C8001EC01DF01E6A1DBE1E6801018C511D2424
:1010D800556F8D511E20566F90C11BF091C11CF0A9
:1010E80047EC79F01BC01DF01CC01EF08AC11FF030
:1010F8008BC120F012EC79F01EC01DF01E6A1DBED7
:101108001E681D5001018E5D5F6F1E508F59606F04
:1011180092510E6E0F6A0EBE0F06000E116E050E6E
:10112800106EC7EC6EF00E500F10D8A4C3D055C186
:1011380060F056C161F05FC162F060C163F0000EFB
:101148000001656F020E646F8FC066F090C067F093
:10115800A4EC6FF001015051D8A404D08751921922
:10116800D8B4BED090C113F091C114F0BEEC69F0B0
:1011780013C01DF014C01EF06DC11FF06EC120F029
:1011880012EC79F01EC01DF01E6A1DBE1E6801011A
:101198008C511D24576F8D511E20586F90C11BF024
:1011A80091C11CF047EC79F01BC01DF01CC01EF06B
:1011B8006DC11FF06EC120F012EC79F01EC01DF059
:1011C8001E6A1DBE1E681D5001018E5D616F1E5096
:1011D8008F59626F9251D8A402D00C0E0DD0925143
:1011E8000E6E0F6A0EBE0F06000E116E050E106E03
:1011F800D1EC6CF00E5001017C6F7D0E2A6E010E51
:101208002B6EF80E2C6EFF0E2D6E7C512E6E2F6AF3
:101218002EBE2F06D0EC28F001017C51800A760FF3
:10122800D8B024D0FC0E572500016A6FFF0E0101CB
:10123800582100016B6FFD0E0101612500016C6FE3
:10124800FF0E0101622100016D6F7D0E6E6F010EB0
:101258006F6F8FC070F090C071F08FC072F090C047
:1012680073F0010E746F13EC6DF03AD0F90E572538
:1012780000016A6FFF0E0101582100016B6FFD0E1E
:101288000101612500016C6FFF0E0101622100015F
:101298006D6F7D0E6E6F010E6F6F8FC070F090C016
:1012A80071F08FC072F090C073F0010E746F13EC80
:1012B8006DF016D053C160F054C161F05DC162F0A9
:1012C8005EC163F055C164F056C165F05FC166F058
:1012D80060C167F08FC068F090C069F0A7EC5CF05F
:1012E8000101922B91D6000120EE02F08851D926F7
:1012F8008951DA22120EDF600BD07D0E2A6E010EA4
:101308002B6EEF0E2C6EFF0E2D6ED0EC28F00AD04F
:101318007D0E2A6E010E2B6EF20E2C6EFF0E2D6EB8
:10132800D0EC28F0F20E8A256A6FFF0E8B216B6FC6
:10133800D890010189310001926F010188310001C3
:10134800916F8C5191256C6F8D5192216D6F7D0E2F
:101358006E6F010E6F6F8FC070F090C071F08FC00C
:1013680072F090C073F0020E746F13EC6DF017C337
:1013780060F018C361F00DC362F00EC363F019C3C7
:1013880064F01AC365F00FC366F010C367F082C13A
:1013980068F083C169F0A7EC5CF003010D510F5DA3
:1013A8000001916F03010E5110590001926F030162
:1013B8001751195D0001936F030118511A59000163
:1013C800946F9151935D92519459D8B045D0010EC4
:1013D800030117250001606F000E030118210001A9
:1013E800616F0DC362F00EC363F0010E030119258E
:1013F8000001646F000E03011A210001656F0FC31D
:1014080066F010C367F082C168F083C169F0A7EC89
:101418005CF0FF0E030117250001606FFF0E03014A
:1014280018210001616F0DC362F00EC363F0FF0E57
:10143800030119250001646FFF0E03011A21000141
:10144800656F0FC366F010C367F082C168F083C18F
:1014580069F0A7EC5CF044D017C360F018C361F0E2
:10146800FF0E03010D250001626FFF0E03010E211F
:101478000001636F19C364F01AC365F0FF0E03011E
:101488000F250001666FFF0E030110210001676F31
:1014980082C168F083C169F0A7EC5CF017C360F003
:1014A80018C361F0FF0E03010D250001626FFF0EE6
:1014B80003010E210001636F19C364F01AC365F0BC
:1014C800FF0E03010F250001666FFF0E03011021B7
:1014D8000001676F82C168F083C169F0A7EC5CF016
:1014E80055C327F056C328F04BC329F04CC32AF044
:1014F80057C32BF058C32CF04DC32DF04EC32EF01C
:1015080059C32FF05AC330F04FC331F050C332F0F3
:1015180077C133F078C134F08CEC31F05BC327F03D
:101528005CC328F051C329F052C32AF057C32BF0EB
:1015380058C32CF04DC32DF04EC32EF059C32FF0D5
:101548005AC330F04FC331F050C332F077C133F093
:1015580078C134F08CEC31F055C360F056C361F0BB
:101568004BC362F04CC363F057C364F058C365F0D3
:101578004DC366F04EC367F0FF0E0001696F6869DE
:10158800A7EC5CF055C360F056C361F04BC362F042
:101598004CC363F059C364F05AC365F04FC366F097
:1015A80050C367F0FF0E0001696F6869A7EC5CF033
:1015B8005BC360F05CC361F051C362F052C363F077
:1015C80057C364F058C365F04DC366F04EC367F067
:1015D800FF0E0001696F6869A7EC5CF05BC360F0FF
:1015E8005CC361F051C362F052C363F059C364F045
:1015F8005AC365F04FC366F050C367F0FF0E000191
:10160800696F6869A7EC5CF041C327F042C328F012
:1016180037C329F038C32AF043C32BF044C32CF056
:1016280039C32DF03AC32EF045C32FF046C330F02E
:101638003BC331F03CC332F079C133F07AC134F0A6
:101648008CEC31F041C36AF042C36BF037C36CF0E5
:1016580038C36DF043C36EF044C36FF039C370F004
:101668003AC371F045C372F046C373F03BC374F0DC
:101678003CC375F0FF0E0001776F76698EEC6CF055
:1016880047C327F048C328F03DC329F03EC32AF0DA
:1016980043C32BF044C32CF039C32DF03AC32EF0CA
:1016A80045C32FF046C330F03BC331F03CC332F0A2
:1016B80079C133F07AC134F08CEC31F047C36AF069
:1016C80048C36BF03DC36CF03EC36DF043C36EF08E
:1016D80044C36FF039C370F03AC371F045C372F078
:1016E80046C373F03BC374F03CC375F0FF0E0001B2
:1016F800776F76698EEC6CF041C360F042C361F09D
:1017080037C362F038C363F043C364F044C365F081
:1017180039C366F03AC367F0FF0E0001696F686964
:10172800A7EC5CF041C360F042C361F037C362F0DC
:1017380038C363F045C364F046C365F03BC366F045
:101748003CC367F0FF0E0001696F6869A7EC5CF0A5
:1017580047C360F048C361F03DC362F03EC363F025
:1017680043C364F044C365F04DC366F04EC367F0ED
:10177800FF0E0001696F6869A7EC5CF05BC360F05D
:101788005CC361F051C362F052C363F059C364F0A3
:101798005AC365F04FC366F050C367F0FF0E0001EF
:1017A800696F6869A7EC5CF02BC360F02CC361F02B
:1017B80021C362F022C363F0000E0001656F030EBF
:1017C800646F80C166F081C167F0A4EC6FF02DC32F
:1017D80060F02EC361F023C362F024C363F02FC30B
:1017E80064F030C365F025C366F026C367F080C196
:1017F80068F081C169F0A7EC5CF02BC360F02CC3E2
:1018080061F021C362F022C363F031C364F032C3D4
:1018180065F027C366F028C367F080C168F081C10E
:1018280069F0A7EC5CF02BC360F02CC361F021C316
:1018380062F022C363F033C364F034C365F029C394
:1018480066F02AC367F080C168F081C169F0A7EC2F
:101858005CF0000E0301F86F1200B90EF66EFA0E76
:10186800F76E000EF86E20EE88F0090E0900F5CF2D
:10187800DEFFE806FBE23B50880FD96EDA6ADFA08C
:101888008BD03C50050DF3CF3FF0F4CF40F03750EC
:101898003F24946F38504020956F39C096F03AC075
:1018A80097F03C50120DF3CF3FF0F4CF40F0375093
:1018B8003F249A6F385040209B6F39C09CF03AC043
:1018C8009DF03C503F6E406A3F3A403AF00E401659
:1018D8003F500F0B4012F00E3F1637503F24926FC7
:1018E80038504020936F3C503F6E406AD8903F3646
:1018F800403639503F24986F3A504020996F94C031
:1019080027F095C028F096C029F097C02AF09AC011
:101918002BF09BC02CF09CC02DF09DC02EF092C0E7
:101928002FF093C030F098C031F099C032F03DC02C
:1019380033F03EC034F08CEC31F03C50070DF3CF5F
:101948003FF0F4CF40F037503F2400019A6F3850F1
:1019580040209B6F98C09CF099C09DF094C027F0E0
:1019680095C028F096C029F097C02AF092C02BF0B5
:1019780093C02CF098C02DF099C02EF09AC02FF08B
:101988009BC030F09CC031F09DC032F03DC033F0B8
:101998003EC034F08CEC31F03B50880FD96EDA6AD7
:1019A8000001DFA2C7D03C503F6E406A3F3A403A40
:1019B800F00E40163F500F0B4012F00E3F163750F6
:1019C8003F24946F38504020956F3C503CC03FF006
:1019D800406AD8903F364036D8903F3640363F5E12
:1019E800000E405A39503F263A504022010E3F24FB
:1019F800966F000E4020976F3C50120DF3CF3FF0CA
:101A0800F4CF40F037503F249A6F385040209B6FF6
:101A18003C503CC03FF0406AD8903F3640363F5E6D
:101A2800000E405A39503F263A504022010E3F24BA
:101A38009C6F000E40209D6F3C503F6E406A3F3ABD
:101A4800403AF00E40163F500F0B4012F00E3F1672
:101A58003C50416E426A3F50412640504222375026
:101A6800412638504222FF0E4124926FFF0E422039
:101A7800936F3C500D0DF3CF3FF0F4CF40F0395049
:101A88003F24986F3A504020996F9AC027F09BC026
:101A980028F09CC029F09DC02AF094C02BF095C076
:101AA8002CF096C02DF097C02EF092C02FF093C066
:101AB80030F098C031F099C032F03DC033F03EC0EC
:101AC80034F08CEC31F03C500F0DF3CF3FF0F4CFF5
:101AD80040F037503F2400019A6F385040209B6FE8
:101AE8003C500B0DF3CF3FF0F4CF40F039503F247A
:101AF8009C6F3A5040209D6F9AC027F09BC028F0F9
:101B08009CC029F09DC02AF092C02BF093C02CF005
:101B180098C02DF099C02EF094C02FF095C030F0E9
:101B280096C031F097C032F03DC033F03EC034F07B
:101B38008CEC31F03B50880FD96EDA6A0001DFA4D3
:101B4800ADD03C500E0DF3CF3FF0F4CF40F03750FE
:101B58003F2638504022010E3F24946F000E40204B
:101B6800956F3C500F0DF3CF3FF0F4CF40F0395054
:101B78003F24966F3A504020976F3C50100DF3CF9A
:101B88003FF0F4CF40F037503F2638504022010E46
:101B98003F249A6F000E40209B6F3C500E0DF3CFF0
:101BA8003FF0F4CF40F039503F249C6F3A5040202A
:101BB8009D6F3C500F0DF3CF3FF0F4CF40F03750FE
:101BC8003F24926F38504020936F3C501A0DF3CF4A
:101BD8003FF0F4CF40F039503F263A504022FF0EF4
:101BE8003F24986FFF0E4020996F9AC027F09BC042
:101BF80028F09CC029F09DC02AF094C02BF095C015
:101C08002CF096C02DF097C02EF092C02FF093C004
:101C180030F098C031F099C032F03DC033F03EC08A
:101C280034F08CEC31F03C500D0DF3CF3FF0F4CF95
:101C380040F037503F2400019A6F385040209B6F86
:101C48003C50180DF3CF3FF0F4CF40F039503F2609
:101C58003A504022FF0E3F249C6FFF0E40209D6F9C
:101C68009AC027F09BC028F09CC029F09DC02AF09C
:101C780092C02BF093C02CF098C02DF099C02EF094
:101C880094C02FF095C030F096C031F097C032F074
:101C98003DC033F03EC034F08CEC31F03B50880F3F
:101CA800D96EDA6A0001DFA695D03C503F6E406AD3
:101CB800D8903F36403637503F24946F38504020F4
:101CC800956F3C50180DF3CF3FF0F4CF40F03950EA
:101CD8003F24966F3A504020976F3C500C0DF3CF3D
:101CE8003FF0F4CF40F037503F249A6F38504020EF
:101CF8009B6F3C50180DF3CF3FF0F4CF40F03950B4
:101D08003F249C6F3A5040209D6F3C500E0DF3CFFE
:101D18003FF0F4CF40F037503F24926F38504020C6
:101D2800936F3C501A0DF3CF3FF0F4CF40F0395089
:101D38003F24986F3A504020996F9AC027F09BC073
:101D480028F09CC029F09DC02AF094C02BF095C0C3
:101D58002CF096C02DF097C02EF092C02FF093C0B3
:101D680030F098C031F099C032F03DC033F03EC039
:101D780034F08CEC31F037C09AF038C09BF03C500E
:101D88001A0DF3CF3FF0F4CF40F039503F24000153
:101D98009C6F3A5040209D6F9AC027F09BC028F056
:101DA8009CC029F09DC02AF092C02BF093C02CF063
:101DB80098C02DF099C02EF094C02FF095C030F047
:101DC80096C031F097C032F03DC033F03EC034F0D9
:101DD8008CEC31F03B50880FD96EDA6A0001DFA82D
:101DE800ACD03C503F6E406AD8903F3640363750B2
:101DF8003F24946F38504020956F3C500E0DF3CF20
:101E08003FF0F4CF40F039503F24966F3A504020CD
:101E1800976F3C50040DF3CF3FF0F4CF40F03750AC
:101E28003F2638504022FF0E3F249A6FFF0E402075
:101E38009B6F3C500F0DF3CF3FF0F4CF40F039507B
:101E48003F249C6F3A5040209D6F3C503F6E406A43
:101E5800D8903F3640363C50416E426A3F5041264A
:101E6800405042223750412638504222FF0E41242A
:101E7800926FFF0E4220936F3C50170DF3CF3FF047
:101E8800F4CF40F039503F263A504022FF0E3F240D
:101E9800986FFF0E4020996F9AC027F09BC028F0DA
:101EA8009CC029F09DC02AF094C02BF095C02CF05E
:101EB80096C02DF097C02EF092C02FF093C030F04E
:101EC80098C031F099C032F03DC033F03EC034F0D4
:101ED8008CEC31F037C09AF038C09BF03C50190DAB
:101EE800F3CF3FF0F4CF40F039503F263A5040222C
:101EF800FF0E3F2400019C6FFF0E40209D6F9AC08B
:101F080027F09BC028F09CC029F09DC02AF092C001
:101F18002BF093C02CF098C02DF099C02EF094C0EF
:101F28002FF095C030F096C031F097C032F03DC028
:101F380033F03EC034F08CEC31F03B50880FD96E52
:101F4800DA6A0001DFAAACD03C503F6E406AD890F4
:101F58003F364036D8903F36403637503F24946F4E
:101F680038504020956F010E3924966F000E3A20A4
:101F7800976F3C50060DF3CF3FF0F4CF40F0375049
:101F88003F249A6F385040209B6F3C50020DF3CF8E
:101F98003FF0F4CF40F039503F263A504022010E2E
:101FA8003F249C6F000E40209D6F3C503F6E406A5E
:101FB800D8903F364036D8903F3640363C50416E38
:101FC800426A3F50412640504222375041263850FD
:101FD8004222FF0E4124926FFF0E4220936F3C5025
:101FE8000B0DF3CF3FF0F4CF40F039503F24986FFA
:101FF8003A504020996F9AC027F09BC028F09CC0A7
:1020080029F09DC02AF094C02BF095C02CF096C002
:102018002DF097C02EF092C02FF093C030F098C0EA
:1020280031F099C032F03DC033F03EC034F08CEC52
:1020380031F03C503F6E406AD8903F3640363750BA
:102048003F2400019A6F385040209B6F3C500C0D84
:10205800F3CF3FF0F4CF40F039503F249C6F3A5013
:1020680040209D6F9AC027F09BC028F09CC029F0A3
:102078009DC02AF092C02BF093C02CF098C02DF090
:1020880099C02EF094C02FF095C030F096C031F072
:1020980097C032F03DC033F03EC034F08CEC31F0E4
:1020A8003B50880FD96EDA6A0001DFAC12003C5051
:1020B800030DF3CF3FF0F4CF40F037503F24946F37
:1020C80038504020956F3C500D0DF3CF3FF0F4CFC2
:1020D80040F039503F24966F3A504020976F3C505B
:1020E800050DF3CF3FF0F4CF40F037503F249A6FFF
:1020F800385040209B6F3C500C0DF3CF3FF0F4CF8D
:1021080040F039503F249C6F3A5040209D6F3C501E
:102118000E0DF3CF3FF0F4CF40F037503F24926FCD
:1021280038504020936F3C500C0DF3CF3FF0F4CF64
:1021380040F039503F24986F3A504020996F9AC028
:1021480027F09BC028F09CC029F09DC02AF094C0BD
:102158002BF095C02CF096C02DF097C02EF092C0B1
:102168002FF093C030F098C031F099C032F03DC0E4
:1021780033F03EC034F08CEC31F03C503F6E406A96
:10218800D8903F364036D8903F36403637503F24B7
:1021980000019A6F385040209B6F3C500E0DF3CFD2
:1021A8003FF0F4CF40F039503F249C6F3A50402024
:1021B8009D6F9AC027F09BC028F09CC029F09DC055
:1021C8002AF092C02BF093C02CF098C02DF099C043
:1021D8002EF094C02FF095C030F096C031F097C023
:1021E80032F03DC033F03EC034F08CEC31F03C505E
:1021F8000D0DF3CF3FF0F4CF40F037503F240001EE
:10220800946F38504020956F3C500E0DF3CF3FF03F
:10221800F4CF40F039503F24966F3A504020976FE2
:102228009AC027F09BC028F09CC029F09DC02AF0D6
:1022380092C02BF093C02CF098C02DF099C02EF0CE
:1022480094C02FF095C030F096C031F097C032F0AE
:102258003DC033F03EC034F08CEC31F03C500F0DF3
:10226800F3CF3FF0F4CF40F037503F2400019A6F8E
:10227800385040209B6F3C500D0DF3CF3FF0F4CF0A
:1022880040F039503F249C6F3A5040209D6F9AC0CF
:1022980027F09BC028F09CC029F09DC02AF092C06E
:1022A8002BF093C02CF098C02DF099C02EF094C05C
:1022B8002FF095C030F096C031F097C032F03DC095
:1022C80033F03EC034F08CEC31F01200A0C0D9FFDE
:1022D800A1C0DAFF000EDE6E000EDD6E9EC00EF0AD
:1022E8009FC00FF01AEC5FF00EC0CBF00FC0CCF01F
:1022F800CCAF02D00B0E1200D890CB35D96ECC35AE
:10230800DA6E9A0ED926030EDA22DECFE3F0DDCF9D
:10231800E4F0E351E411D8A402D00C0E1200A0C0DE
:10232800D9FFA1C0DAFFE3C0DEFFE4C0DDFFA29160
:10233800E3C0D9FFE4C0DAFFDF50D8B415D020EEEF
:1023480001F0E351D926E451DA22DF5020EC76F08F
:102358000001D36FD3B108D0A251D8A4D3A502D01D
:102368000A0E1200000E1200E3C0D9FFE4C0DAFF23
:10237800000EDF6E20EE01F0E351D926E451DA2297
:10238800CBC0DFFF20EE01F0E351D926E451DA2279
:10239800DF5087EC78F00001D36FD3A102D0030E91
:1023A8001200A251D8B402D0D3B5DAD7000EDC6F30
:1023B800000EDD6F000EDE6F000EDF6FE3C097F0DA
:1023C800E4C098F0000E996F000E9A6F000E9B6F94
:1023D800000E9C6F1FEC5BF00001E26F020EE21929
:1023E800D8A49DD0000EE16F000EE06FE15153E1DB
:1023F800040EE05DD8B04FD0E0C0A3F0E1C0A4F077
:10240800A33BA43BF00EA417A3510F0BA413F00E8B
:10241800A317E3C0A5F0E4C0A6F0A351A527A451D3
:10242800A623ED0EA525C56F010EA621C66F20EEC9
:1024380004F0C551D926C651DA22DF50D8A409D0F4
:10244800000EBB6F000EBC6F000EBD6F000EBE6F9E
:1024580010D0080EC5250E6E000EC6210F6EB4EC06
:1024680065F00EC0BBF00FC0BCF010C0BDF011C0CD
:10247800BEF00001E051040DF350AB0FD96EDA6ADB
:10248800BBC0DEFFBCC0DEFFBDC0DEFFBEC0DEFFDE
:10249800E04BE12BABD7000EE16F000EE06FE0518F
:1024A800E111D8B403D0E007D8A0E107E051040D4A
:1024B800F350AB0FD96EDA6ADECFDCF0DECFDDF099
:1024C800DECFDEF0DECFDFF0DC51DD11DE11DF1113
:1024D800D8A405D0000EC06F030EBF6F13D0E3C0A1
:1024E80097F0E4C098F0DCC099F0DDC09AF0DEC047
:1024F8009BF0DFC09CF01FEC5BF00001A36FA351C1
:10250800BF6FC06BBFC0E2F0010EE26508D0E04BC0
:10251800E12BE15104E1040EE05DD8A0C7D7040E19
:10252800E219D8A402D0010E1200010EE26502D011
:102538000D0E12003A0EE3250E6E000EE4210F6E0A
:10254800B2EC76F0020E0F180E10D8A4F1D7450E93
:102558000001E3250E6E000EE4210F6EB2EC76F05A
:102568000EC0D8F00FC0D9F00001DA6BDB6BD85180
:10257800D911DA11DB11D8A410D0530EE3250E6E51
:10258800000EE4210F6EB4EC65F00EC0D8F00FC059
:10259800D9F010C0DAF011C0DBF0000120EE17F01E
:1025A800E351D926E451DA22D8C0DEFFD9C0DEFFD4
:1025B800DAC0DEFFDBC0DEFF20EE3FF0E351D926B4
:1025C800E451DA2210EE02F0E351E126E451E2226E
:1025D800DFCFE7FF20EE02F0E351D926E451DA22FB
:1025E800DE04D8B40AD020EE02F0E351D926E45133
:1025F800DA22020EDE18D8A49BD7D8C00EF0D9C0B4
:102608000FF0DAC010F0DBC011F020EE02F0E35159
:10261800D926E451DA22DF50A36FA351126E136A50
:10262800146A156A16EC72F00EC0D8F00FC0D9F013
:1026380010C0DAF011C0DBF0000120EE3CF0E351ED
:10264800D926E451DA22DF50A36FA46B20EE09F0FB
:10265800E351D926E451DA22A3C0DEFFA4C0DDFF8E
:1026680020EE09F0E351D926E451DA22DE50DE10DB
:10267800D8B45ED720EE09F0E351D926E451DA2226
:10268800DECFA3F0DDCFA4F0FF0EA56FFF0EA66F7F
:1026980020EE09F0E351D926E451DA22DECFA7F083
:1026A800DDCFA8F0A551A727A651A823A351A717A6
:1026B800A451A817A751A811D8A43AD7400EE325CA
:1026C8000E6E000EE4210F6EB2EC76F0000120EEE3
:1026D80007F0E351D926E451DA220EC0DEFF0FC01D
:1026E800DDFF20EE07F0E351D926E451DA22DF506E
:1026F800A36F0F0EA317D8A41BD7420EE3250E6EA7
:10270800000EE4210F6EB2EC76F00EC0CFF00FC0D1
:10271800D0F00001D16BD26BCF51D011D111D211B1
:10272800D8A410D04F0EE3250E6E000EE4210F6ED4
:10273800B4EC65F00EC0CFF00FC0D0F010C0D1F0EF
:1027480011C0D2F03D0E0001E3250E6E000EE4210B
:102758000F6EB2EC76F00EC0CDF00FC0CEF00001D7
:10276800CD51CE11D8B4E4D620EE07F0E351D926E6
:10277800E451DA22DECFA3F0DDCFA4F0040EA56F7A
:10278800D890A433A333A52FFBD7CD51A325A66F8B
:10279800CE51A421A76FA86BD8B0A82BA96BD8518C
:1027A800A625C76FD951A721C86FDA51A821C96FCB
:1027B800DB51A921CA6FC751CF5DC851D059C95142
:1027C800D159CA51D259D8A0B3D6C751CF5D0E6ED0
:1027D800C851D0590F6EC951D159106ECA51D2592A
:1027E800116E20EE09F0E351D926E451DA22DECF4A
:1027F800A3F0DDCFA4F0A3C012F0A4C013F0146AB4
:10280800156A97EC6DF00EC0D4F00FC0D5F010C06B
:10281800D6F011C0D7F0D451D511D611D711D8B4EC
:1028280087D6000EE26FF60ED45DFF0ED559FF0E67
:10283800D6590F0ED759D8B002D0030EE26FD75130
:10284800D61108E1F60ED45DFF0ED559D8B002D0E6
:10285800020EE26FD751D61108E1F60ED45D0F0EC5
:10286800D559D8B002D0010EE26FE251D8B460D683
:10287800020ED425A36F000ED521A46F000ED62119
:10288800A56F000ED721A66F20EE13F0E351D926CD
:10289800E451DA22A3C0DEFFA4C0DEFFA5C0DEFF3C
:1028A800A6C0DEFF20EE1BF0E351D926E451DA2260
:1028B800DCC0DEFFDDC0DEFFDEC0DEFFDFC0DEFF26
:1028C800CD51DC25A36FCE51DD21A46F000EDE2192
:1028D800A56F000EDF21A66F20EE1FF0E351D92669
:1028E800E451DA22A3C0DEFFA4C0DEFFA5C0DEFFEC
:1028F800A6C0DEFFC751DC25A36FC851DD21A46F38
:10290800C951DE21A56FCA51DF21A66F20EE27F03D
:10291800E351D926E451DA22A3C0DEFFA4C0DEFFCA
:10292800A5C0DEFFA6C0DEFF030EE219D8A44DD075
:10293800590EE3250E6E000EE4210F6EB2EC76F010
:102948000E500F10D8A4F4D5000120EE07F0E35183
:10295800D926E451DA22DE50DE10D8A4E9D55B0E80
:10296800E3250E6E000EE4210F6EB4EC65F0000155
:1029780020EE23F0E351D926E451DA220EC0DEFF1F
:102988000FC0DEFF10C0DEFF11C0DEFF20EE13F027
:10299800E351D926E451DA22DECFA3F0DECFA4F04A
:1029A800DECFA5F0DECFA6F0020ED890A337A4376D
:1029B800A537A637E82EF9D7A3C0C1F0A4C0C2F046
:1029C800A5C0C3F0A6C0C4F091D020EE07F0E35133
:1029D800D926E451DA22DE50DE10D8B4A9D520EE8B
:1029E8001FF0E351D926E451DA22DECFA3F0DECF7F
:1029F800A4F0DECFA5F0DECFA6F0D851A325A76FAF
:102A0800D951A421A86FDA51A521A96FDB51A621BC
:102A1800AA6F20EE23F0E351D926E451DA22A7C0A9
:102A2800DEFFA8C0DEFFA9C0DEFFAAC0DEFF020EDF
:102A3800E219D8B444D020EE13F0E351D926E4517A
:102A4800DA22DECFA3F0DECFA4F0DECFA5F0DECF12
:102A5800A6F0010EA315A76F000EA415A86F000E0F
:102A6800A515A96F000EA615AA6F20EE13F0E35165
:102A7800D926E451DA22DECF0EF0DECF0FF0DECF1A
:102A880010F0DECF11F0030E126E000E136E000E62
:102A9800146E000E156E16EC72F0D89011321032CA
:102AA8000F320E320001A7510E24C16FA8510F201A
:102AB800C26FA9511020C36FAA51112016D020EE61
:102AC80013F0E351D926E451DA22DECFA3F0DECFAA
:102AD800A4F0DECFA5F0DECFA6F0D890A335C16F65
:102AE800A435C26FA535C36FA635C46FFF0EC125C7
:102AF800A36F010EC221A46F000EC321A56F000EA3
:102B0800C421A66F0A0E05D0D890A633A533A433E6
:102B1800A333E82EF9D720EE17F0E351D926E45174
:102B2800DA22A351DE5CA451DE58A551DE58A65125
:102B3800DE58D8A0FDD420EE0FF0E351D926E45199
:102B4800DA22FF0EDE6EFF0EDE6EFF0EDE6EFF0E69
:102B5800DD6EDD52DD5210EE0BF0E351E126E4515B
:102B6800E222DECFE6FFDECFE6FFDECFE6FFDECFF6
:102B7800E6FF20EE04F0E351D926E451DA22800E74
:102B8800DF6E030EE219D8A494D05F0EE3250E6E13
:102B9800000EE4210F6EB2EC76F00E040F10D8A4EC
:102BA80088D0E3C08CF0E4C08DF0010E0001DC2574
:102BB8008E6F000EDD218F6F000EDE21906F000EEC
:102BC800DF21916F1BEC67F00009D8A472D020EECA
:102BD80004F0E351D926E451DA22000EDF6E2D0EFF
:102BE800E3250E6E020EE4210F6EB2EC76F0550E60
:102BF8000E185FE1AA0E0F18D8A45BD02F0E0001A3
:102C0800E3250E6E000EE4210F6EB4EC65F0520E53
:102C18000E184FE1520E0F184CE1610E101849E1E1
:102C2800410E1118D8A445D0130E0001E3250E6EED
:102C3800020EE4210F6EB4EC65F0720E0E1839E145
:102C4800720E0F1836E1410E101833E1610E11189B
:102C5800D8A42FD0170E0001E3250E6E020EE42132
:102C68000F6EB4EC65F0000120EE0FF0E351D926A9
:102C7800E451DA220EC0DEFF0FC0DEFF10C0DEFF17
:102C880011C0DEFF1B0EE3250E6E020EE4210F6E4F
:102C9800B4EC65F0000120EE0BF0E351D926E451C5
:102CA800DA220EC0DEFF0FC0DEFF10C0DEFF11C04B
:102CB800DEFFE3C0D9FFE4C0DAFFE2C0DFFF0301B3
:102CC800984B992B000120EE05F0E351D926E451E9
:102CD800DA2298C3DEFF99C3DDFFB6EF11F0D7C043
:102CE80005F1D8C006F1DBC0D9FFDCC0DAFF000E61
:102CF800DE6E000EDD6ED5C010F0D6C011F0150ED8
:102D0800126E010E136EF4EC64F00101046F0451AD
:102D1800D8A41200000120EE0FF0D551D926D651C3
:102D2800DA22DF500101046F0451D8A41200000117
:102D380020EE0EF0D551D926D651DA22DFA21200A4
:102D480020EE10F0D551D926D651DA2210EE10F027
:102D5800D551E126D651E222E6CFE1F0E6CFE2F006
:102D6800E6CFE3F0E6CFE4F0D951E125E56FDA519B
:102D7800E221E66F000EE321E76F000EE421E86F21
:102D8800DE50E55DDE50E659DE50E759DE50E85981
:102D9800D8B065D320EE10F0D551D926D651DA2215
:102DA800DECFDDF0DDCFDEF0DD1DD96FDE1DDA6FA1
:102DB80056D320EE10F0D551D926D651DA22FF0E7F
:102DC800DE14DD6F010EDE14DE6F000EDE14DF6F21
:102DD800000EDE14E06FDD51DE11DF11E011D8A422
:102DE80067D220EE10F0D551D926D651DA22DECF9F
:102DF800DDF0DECFDEF0DECFDFF0DECFE0F00A0E72
:102E080005D0D890E033DF33DE33DD33E82EF9D751
:102E1800FF0EE16FFF0EE26F010120EE09F0155180
:102E2800D9261651DA22DECFE3F0DDCFE4F0000137
:102E3800E151E327E251E423DD51E3150101076F76
:102E48000001DE51E4150101086F07510811D8A4EB
:102E5800A1D0000120EE10F0D551D926D651DA22A2
:102E6800DE50DE10DE10DE10D8A425D020EE06F0ED
:102E7800D551D926D651DA22DECF0FF1DECF10F1A7
:102E8800DECF11F1DECF12F101010F511011111136
:102E98001211D8A42CD0D5C0B8F0D6C0B9F0000E05
:102EA8000001BA6F000EBB6F000EBC6F000EBD6F45
:102EB80019EC2BF014D0D5C0B8F0D6C0B9F020EE7C
:102EC80014F0D551D926D651DA22DECFBAF0DECFAA
:102ED800BBF0DECFBCF0DECFBDF019EC2BF0B8C0F4
:102EE8000FF1B9C010F1BAC011F1BBC012F1010164
:102EF8000F51101111111211D8B4B5D20F051011BC
:102F080011111211D8A40AD0000120EE0FF0D551EA
:102F1800D926D651DA22020EDF6E12000F2911E1EE
:102F280010290FE111290DE11229D8A40AD00001B6
:102F380020EE0FF0D551D926D651DA22010EDF6ED8
:102F48001200000120EE14F0D551D926D651DA220C
:102F58000FC1DEFF10C1DEFF11C1DEFF12C1DEFFAF
:102F680020EE06F0D551D926D651DA22DE50DE10F1
:102F7800DE10DE10D8A40ED020EE06F0D551D926EA
:102F8800D651DA220FC1DEFF10C1DEFF11C1DEFF0C
:102F980012C1DEFF000120EE18F0D551D926D65116
:102FA800DA22010110EE2BF01551E1261651E2222A
:102FB800DE50E6181CE1DE50E61819E1DE50E6188E
:102FC80016E1DE50E618D8A412D015C179F016C162
:102FD8007AF0A6EC54F00009D8B409D020EE0FF02E
:102FE800D551D926D651DA22010EDF6E120015C14D
:102FF8001AF016C11BF0000120EE14F0D551D926A5
:10300800D651DA22DECF1CF0DECF1DF0DECF1EF067
:10301800DECF1FF094EC64F01AC00BF11BC00CF16A
:103028001CC00DF11DC00EF101010B510C110D1149
:103038000E11D8A40AD0000120EE0FF0D551D926E0
:10304800D651DA22020EDF6E120007510B27085103
:103058000C23000E0D23000E0E23D9C0DDF0DAC0BC
:10306800DEF0090E0001DF6FD890DE33DD33DF2F8D
:10307800FBD7DDC009F1DEC00AF1010109510A11CF
:10308800D8B4CFD0095107250001DD6F01010A51DD
:1030980008210001DE6F010120EE09F01551D92643
:1030A8001651DA220001DD51DE5CDE51DE58D8B05F
:1030B80015D0010120EE09F01551D9261651DA2252
:1030C800DECFDDF0DDCFDEF007510001DD5D01016F
:1030D800096F08510001DE5901010A6F05C171F03D
:1030E80006C172F00BC173F00CC174F00DC175F01C
:1030F8000EC176F009C177F00AC178F0010120EE1F
:1031080001F01551D9261651DA22DF5051EC74F02E
:103118000009D8B40AD0000120EE0FF0D551D92605
:10312800D651DA22010EDF6E1200010109510001A9
:10313800DD6F01010A510001DE6FDF6BE06B0101F9
:1031480020EE2BF01551D9261651DA22DECFE1F008
:10315800DECFE2F0DECFE3F0DECFE4F00B5100018A
:10316800E15DE56F01010C510001E259E66F0101D3
:103178000D510001E359E76F01010E510001E459B7
:10318800E86FDD51E55DDE51E659DF51E759E05161
:10319800E859D8B036D02F0E010115250E6E000E55
:1031A80016210F6E20EE2BF01551D9261651DA2272
:1031B800DECFDDF0DDCFDEF00B510001DD5F010178
:1031C8000C510001DE5B090ED890DD37DE37E82EA2
:1031D800FBD7DD5101010525106E0001DE5101010B
:1031E8000621116E020E136E000E126E02EC76F0BE
:1031F800010120EE03F01551D9261651DA22000EEE
:10320800DF6E09C1DDF00AC1DEF0090ED8900001B9
:10321800DD37DE37E82EFAD7DDC013F1DEC014F152
:10322800C4D0000120EE0AF0D551D926D651DA22B1
:1032380010EE10F0D551E126D651E222DE50E65CC0
:10324800DE50E658DE50E658DE50E658D8A021D0C9
:1032580015C179F016C17AF0A6EC54F00009D8B47B
:1032680009D020EE0FF0D551D926D651DA22010E19
:10327800DF6E1200010120EE2BF01551D9261651F0
:10328800DA220BC1DEFF0CC1DEFF0DC1DEFF0EC16D
:10329800DEFF000120EE18F0D551D926D651DA22EA
:1032A8000BC1DEFF0CC1DEFF0DC1DEFF0EC1DEFF6C
:1032B800FF0EDD6F010EDE6F20EE10F0D551D9261E
:1032C800D651DA22DECFDFF0DDCFE0F0DD51DF17B7
:1032D800DE51E017DF5100080101136F0001E051D2
:1032E800D8A0E82A02080101146F13510001D95D22
:1032F800010114510001DA59D8B004D0D9C013F132
:10330800DAC014F115C18CF016C18DF020EE18F05A
:10331800D551D926D651DA22DECF8EF0DECF8FF006
:10332800DECF90F0DECF91F01BEC67F00009D8B447
:1033380009D020EE0FF0D551D926D651DA22010E48
:10334800DF6E1200FF0EDD6F010EDE6F20EE10F053
:10335800D551D926D651DA22DECFDFF0DDCFE0F025
:10336800DD51DF17DE51E01715C1E1F016C1E2F0BB
:10337800DF51E127E051E2232F0EE1250E6E000E0A
:10338800E2210F6E05C110F006C111F013C112F051
:1033980014C113F002EC76F0010120EE03F0155190
:1033A800D9261651DA22010EDF6E010113510001F0
:1033B800D95F010114510001DA5BDBC0D9FFDCC021
:1033C800DAFF01011351DE261451DD2213510527BE
:1033D80014510623000120EE10F0D551D926D651FC
:1033E800DA2201011351DE261451DE22000EDE22FC
:1033F800DE22000120EE10F0D551D926D651DA226E
:1034080010EE0AF0D551E126D651E222DE50E65CF4
:10341800DE50E658DE50E658DE50E658D8A003D015
:1034280020EE0AF002D020EE10F0D551D926D65160
:10343800DA22DECF00F1DECF01F1DECF02F1DECFFE
:1034480003F120EE0AF0D551D926D651DA2200C16F
:10345800DEFF01C1DEFF02C1DEFF03C1DEFFD9517D
:10346800DA11D8A4A6D4000120EE0EF0D551D92641
:10347800D651DA22000EDB8C1200000E0301DA6F3F
:10348800000ED76F000EDB6F000EDC6F000EDD6FD5
:10349800000EDE6F000EDF6F898C490EF66EFA0E95
:1034A800F76EF86A0900F5CF2CF00900F5CF2DF07A
:1034B80001D809D00500FA6E2C50FD6E2D50FE6E15
:1034C800FF6AFA5012000009D8A402D0000E1200B8
:1034D8001E0E3DEC73F0000E0001866F640E856FC2
:1034E800898C230EF66EFA0EF76EF86A0900F5CF8E
:1034F8002CF00900F5CF2DF001D80AD00500FA6E9E
:103508002C50FD6E2D50FE6EFF6AFA50FF0E120011
:10351800899C00018507D8A08607000E156E000E4D
:10352800166E000E176E000E186E000E7DEC2FF052
:1035380020EE80F0040EEBCFDBFFE806FCE2000192
:103548008005D8B404D085518611D8A4C9D785512F
:103558008611D8A44FD0898C230EF66EFA0EF76E1A
:10356800F86A0900F5CF2CF00900F5CF2DF001D845
:103578000AD00500FA6E2C50FD6E2D50FE6EFF6AC3
:10358800FA50FF0E1200899C000E156E000E166E82
:10359800000E176E000E186E050E7DEC2FF0000E53
:1035A800156E000E166E000E176E000E186E000EC9
:1035B8007DEC2FF020EE80F0040EEBCFDBFFE80669
:1035C800FCE200018005D8B415D0020E0301D76FC4
:1035D800898C1F0EF66EFA0EF76E000EF86E090053
:1035E800F5CF2CF00900F5CF2DF001D86FD70500E5
:1035F800FA6E90D2AA0E156E010E166E000E176E98
:10360800000E186E020E7DEC2FF020EE80F0040EF6
:10361800EBCFDBFFE806FCE220EE81F0FF0EDE14C4
:103628002C6E0F0EDE142D6E000EDE142E6E000EA4
:10363800DE142F6EAA0E2C1863E12D042E102F1005
:10364800D8A45ED0000180B55BD0000E156E000EC8
:10365800166E000E176E000E186E100E7DEC2FF011
:10366800000E0001866F000E856F000E156E000EAD
:10367800166E000E176E000E186E0F0E7DEC2FF0F2
:10368800000E156E000E166E000E176E400E186EA8
:10369800120E7DEC2FF020EE80F0040EEBCFDBFF56
:1036A800E806FCE200018051D8B407D0854B862B90
:1036B8008529DBE18629D8A4D8D7852906E186297A
:1036C800D8A403D0020E0301D76F000E156E000EAA
:1036D800166E000E176E000E186E100E7DEC2FF091
:1036E80020EE80F0040EEBCFDBFFE806FCE20001E1
:1036F80084AD02D0010E01D0000E0301DF6F30D07F
:10370800010E3DEC73F0899C000E0301DF6F1F0E64
:103718000001866F8569000E156E000E166E000E8C
:10372800176E000E186E010E7DEC2FF020EE80F063
:10373800040EEBCFDBFFE806FCE200018507D8A00A
:1037480086078051D8B404D085518611D8A4E3D710
:1037580085518611D8A404D0020E0301D76F898C35
:10376800898C1F0EF66EFA0EF76E000EF86E0900C1
:10377800F5CF2CF00900F5CF2DF001D809D00500C0
:10378800FA6E2C50FD6E2D50FE6EFF6AFA50120034
:10379800210EF66EFA0EF76EF86A0900F5CF2CF0D6
:1037A8000900F5CF2DF001D809D00500FA6E2C508C
:1037B800FD6E2D50FE6EFF6AFA5012000009D8B453
:1037C80085D6899C000E0001866F140E856F000E49
:1037D800156E000E166E000E176E000E186E030E94
:1037E8007DEC2FF020EE80F0040EEBCFDBFFE80637
:1037F800FCE200018507D8A086078051D8B404D020
:1038080085518611D8A4E3D785518611D8A415D03F
:10381800020E0301D76F898C1F0EF66EFA0EF76E33
:10382800000EF86E0900F5CF2CF00900F5CF2DF049
:1038380001D84CD60500FA6E6DD1000E796F000ED6
:103848007B6F7951600FD96EDA6A230EF66EFA0E25
:10385800F76EF86A0900F5CF2CF00900F5CF2DF0C6
:1038680001D80AD00500FA6E2C50FD6E2D50FE6E60
:10387800FF6AFA50FF0E1200DF6E0001792B7B51B0
:10388800D8A406D0FE0E6019D8A402D0000E796F15
:103898007B2B130E7B65D5D7020E0301D96F000E63
:1038A800D86F60C02CF0C00E2C16D8B445D00001DB
:1038B80068512D6E2C6A67C02EF03F0E2E162EC052
:1038C8002FF0306A316A326A30C032F02FC031F0DE
:1038D800306A2F6A2C502F10336E2D503010346EF2
:1038E800000E3110356E000E3210366E69513310ED
:1038F8007C6F34507D6F35507E6F36507F6F7CC043
:103908002CF07DC02DF07EC02EF07FC02FF00A0E67
:10391800D8902C362D362E362F36E82EF9D7FF0EB6
:103928002C240301DB6F030E2D20DC6F000E2E20EC
:10393800DD6F000E2F20A9D0000167512D6E2C6A73
:1039480066C02EF02F6A306A316A2FC031F02EC05F
:1039580030F02F6A2E6A2C502E10326E2D502F10F8
:10396800336E000E3010346E000E3110356E685113
:1039780032107C6F33507D6F34507E6F35507F6FBF
:10398800C00E7C17FF0E7D17030E7E17000E7F17E3
:103998007CC02CF07DC02DF07EC02EF07FC02FF0B3
:1039A800070E05D0D8902F322E322D322C32E82E29
:1039B800F9D72CC07CF02DC07DF02EC07EF02FC032
:1039C8007FF069C02CF0030E2C162D6A6AAF01D067
:1039D8002D2A2D302C34786F65510F0B7A6F7AC0F1
:1039E8002CF0F70E2C26010E2D6E2C2A02D0D89022
:1039F8002D362C2EFCD72D5000017A6F010E7C2518
:103A08000E6E000E7D210F6E000E7E21106E000ED0
:103A18007F21116E78C02CF0020E2C26010E2D6E1F
:103A2800000E2E6E2C2A03D0D8902D362E362C2E32
:103A3800FBD72DC012F02EC013F0146A156A16ECCD
:103A480072F00EC074F00FC075F010C076F011C09F
:103A580077F074C00EF075C00FF076C010F077C024
:103A680011F000017A51126E136A146A156A16EC85
:103A780072F0FF0E0E240301DB6FFF0E0F20DC6FC8
:103A8800FF0E1020DD6FFF0E1120DE6F000E156E89
:103A9800000E166E000E176E000E186E110E7DECDD
:103AA8002FF0D8C315F0D9C316F0176A186A070E95
:103AB8007DEC2FF0898C0301D751D8A41BD0010EBF
:103AC800DA6F1F0EF66EFA0EF76E000EF86E09002A
:103AD800F5CF2CF00900F5CF2DF001D809D005005D
:103AE800FA6E2C50FD6E2D50FE6EFF6AFA501200D1
:103AF800010E12001F0EF66EFA0EF76E000EF86E2B
:103B08000900F5CF2CF00900F5CF2DF001D8DED44F
:103B18000500FA6E2C50FD6E2D50FE6EFF6AFA50AD
:103B28001200E351D8A41CD0000E1A6E000E196EB4
:103B380006EC6CF0000E0201D46F6D0ED425D96E20
:103B4800DA6A030EDA22FF0EDF6ED42BD451800A14
:103B58007D0FD8A0F2D7210E0301A5130201E32B94
:103B68000301A5A139D1F60E296E020E2A6ED9ECF1
:103B780077F0F60E0001B76F020EB86F0201E2513E
:103B8800A4EC5DF0FFEC78F0F2927BEC6BF00301B3
:103B9800A5910201F6510F0BE806D8A491D078C37D
:103BA800F8F179C3F9F10101D890F933F833D890D5
:103BB800F933F833D890F933F833F8C11DF0F9C167
:103BC8001EF0000E206E070E1F6E12EC79F01DC05D
:103BD800FAF11EC0FBF1030E68EC77F00E500101FC
:103BE800FA250301786F0F500101FB210301796F5A
:103BF80078C3F8F179C3F9F10101D890F933F833B2
:103C0800D890F933F833D890F933F833F8C11DF068
:103C1800F9C11EF0000E206E030E1F6E12EC79F033
:103C2800640E1D240201D56F000E1E20D66FE90E0A
:103C3800D55D030ED659D8A004D0030ED66FE80E72
:103C4800D56F0A0ED5250101F86F000E0201D621A5
:103C58000101F96F0201F0510101F85D0201F15112
:103C68000101F959D8B006D0F60E0201F025F06F1F
:103C7800FF0E19D0F60EF86FFF0EF96FD5C2FAF1E4
:103C8800D6C2FBF1F851FA27F951FB23FA51020188
:103C9800F05D0101FB510201F159D8B007D00A0EBD
:103CA800F025F06F000EF121F16F04D0D5C2F0F2CB
:103CB800D6C2F1F2F0C20EF0F1C20FF050EC77F07C
:103CC800F6510F0B020AD8A416D0C40E236E030EA9
:103CD800246EC20E256E030E266E56EC61F0C4C328
:103CE80042F0C5C343F0C2C344F0C3C345F0020168
:103CF800E25128EC58F0080E0201F619D8A46CD04D
:103D0800400E0001E56F070EE66FFB0EE76FFF0E32
:103D1800E86F010EE96F6CEC69F00009D8A45CD07B
:103D2800D20E01010A6F050E0B6FA70E0C6FFF0E66
:103D38000D6F320E0E6FC2EC20F00009D8A43DD0F2
:103D48006E0E2A6E020E2B6EE80E2C6EFE0E2D6E77
:103D5800FCC22EF02F6AFBC230F0316AFAC232F090
:103D6800336AF8C234F0356AF7C236F0376AC4C32A
:103D780038F0C5C339F0D0EC28F0D20ED56F050E57
:103D8800D66F6E0ED76F020ED86F6E0E0E6E020EC5
:103D98000F6EBCEC74F00EC0D9F00FC0DAF0D20E82
:103DA8000001DB6F020EDC6F73EC16F0D20E00011F
:103DB800A26F050EA36F00EC75F0000E0001E56F11
:103DC800000EE66FFB0EE76FFF0EE86F000EE96F5F
:103DD8006CEC69F096EC76F00301A5AB0CD002010F
:103DE800E251A5EC6AF00301A59B130E0201E06500
:103DF80002D0000EE06F020E4C18D8A4DDD04C2A79
:103E0800C80E2A6E030E2B6EC60E2C6E030E2D6E78
:103E180094EC43F0C8C328F0C9C329F0C6C32AF0FC
:103E2800C7C32BF0EE0E2C6E020E2D6EEC0E2E6E0E
:103E3800020E2F6E00EC52F00301A305D8A443D064
:103E48001DEC7BF0000E0301A36F2CEC74F0030152
:103E5800A22B0D0EA2612FD00201FD5184EC7AF045
:103E68000201DA6FFE5184EC7AF00201D76F030188
:103E7800A251050DF3CF0EF0F4CF0FF0D70E106E50
:103E8800020E116EDA0E126E020E136E54EC65F00D
:103E98000201DA518AEC79F00301F96F0201D75176
:103EA8008AEC79F00301FA6FF90E226E030E236E85
:103EB80092EC5FF008D0000EA26FFD0E226E020E8B
:103EC800236E92EC5FF0EEC20EF0EFC20FF0ECC280
:103ED80010F0EDC211F0060E126E34EC6BF0000912
:103EE800D8B492D0010E0201E2250E6E0F6A000EC0
:103EF8000F22000E116E030E106EC7EC6EF00E50FE
:103F08000201E26F000E0F6E070E0E6EE2C210F095
:103F18005CEC76F0010E0301F86F000E0201E36F0E
:103F2800E2510A0DB40EF324D96E050EF420DA6EB0
:103F380014EE00F0090EDBCFE3FFE806FCE2E251E5
:103F48000A0D960EF324D96E050EF420DA6E14EEDF
:103F58000AF0090EDBCFE3FFE806FCE2E2510A0DA6
:103F6800780EF324D96E050EF420DA6E14EE14F0F0
:103F7800090EDBCFE3FFE806FCE2E2510A0DA00ED2
:103F8800F324D96E040EF420DA6E14EE1EF0090E36
:103F9800DBCFE3FFE806FCE2E2510A0D1E0EF32434
:103FA800D96E050EF420DA6E14EE3CF0090EDBCF64
:103FB800E3FFE806FCE228D0050E4C18D8A417D079
:103FC800100E0201E36F4C2A000EDEEC73F0090EAE
:103FD8000101F96F1E0EF86FE40EE82EFED7F82FD8
:103FE800FCD7F92FFAD700F01DEC7BF00DD04C5020
:103FF800D8A40AD0FD0E0001956F020E966F02013B
:10400800E25138EC3FF04C2A0201E151D8B48AD091
:10401800E151D86FD96BD8BFD907000EE16F020EF6
:10402800E219D8B428D0D9BF06D0D9510CE1030E73
:10403800D85DD8B008D0D9AF1BD0FE0ED85DFF0E22
:10404800D959D8B015D0F551800A780FD8B004D016
:10405800F551020DF3CFF5F2F5511D6E1E6A1DBE26
:104068001E06D8C21FF0D9C220F012EC79F00DD08C
:10407800010EF56F0ED0D8C21DF0D9C21EF0000E89
:10408800206E050E1F6E12EC79F01DC0D8F21EC00E
:10409800D9F20201FD5184EC7AF00201DA6F020EC6
:1040A800E219D8A40FD0DA510E6E0F6A0EBE0F06B1
:1040B800000E116E050E106EC7EC6EF00E50020168
:1040C800DA5DDA6FFE5184EC7AF00201D76FD8C25C
:1040D8000EF0D9C20FF0D70E106E020E116EDA0E66
:1040E800126E020E136E54EC65F00201DA518AEC7E
:1040F80079F00201FD6FD7518AEC79F00201FE6F69
:10410800020E516406D0FD0E226E020E236E92EC52
:104118005FF0FD0E0001956F020E966F0201E251ED
:1041280038EC3FF00201DF51D8B414D0000E000182
:10413800616F070E606F000E636FE60E626F000E10
:10414800656F030E646FF80E676F000E666FA4EC60
:104158006FF01200000E0001616F070E606F000E15
:10416800636FE60E626F000E656F030E646F040ED8
:10417800676F000E666FA4EC6FF012000A510B1106
:10418800D8A402D0090E12003F0E0E170C0E000123
:104198009E6F010E9F6F310EA06F010EA16F0EC1B1
:1041A800A2F06AEC11F00101336F3351D8A49DD20B
:1041B80031C134F132C135F1340E0001FB6F010E0B
:1041C800FC6F0CC1FDF00DC1FEF063EC55F0336FD0
:1041D8003351D8B45BAF02D0060E336F0EC10FF166
:1041E8001C0E0F17D8B4D5D03351D8B40DD0040E47
:1041F8003319D8A407D0340E006F010E016FFFECFD
:1042080062F0336F0E870CD038C10FF1110E0F1703
:10421800D8B402D0070E03D00EA502D0080E336F13
:104228003351D8B40EA7C1D031C115F032C116F040
:104238004EC117F04FC118F052EC6EF015C025F1C1
:1042480016C026F117C027F118C028F10E0E01017B
:104258004E25246E000E4F21256ED8EC70F01FC03D
:1042680026F020C027F021C028F022C029F06EECEB
:104278006FF0010120EE0BF04E51D9264F51DA2292
:10428800200EDF6E31C112F032C113F04EC114F0AE
:104298004FC115F0000E166E000E176E000E186E48
:1042A800000E196E21EC75F01C0E01014E25246ECE
:1042B800000E4F21256E000E266E000E276E000E92
:1042C800286E000E296E6EEC6FF0010120EE03F0EF
:1042D8003151D9263251DA22010EDF6E25512611CD
:1042E80027112811D8B461D020EE2BF03151D926EE
:1042F8003251DA22DECF17F1DECF18F1DECF19F115
:10430800DECF1AF1340E0001B86F010EB96F25C166
:10431800BAF026C1BBF027C1BCF028C1BDF0000E21
:10432800BE6F000EBF6F000EC06F000EC16FCCECE9
:1043380053F00101336F3351D8A437D031C18CF019
:1043480032C18DF017C18EF018C18FF019C190F0ED
:104358001AC191F01BEC67F00101336FFF0E2525A0
:104368000F6FFF0E2621106FFF0E2721116FFF0E12
:104378002821126F20EE0BF03151D9263251DA2262
:104388000FC1DEFF10C1DEFF11C1DEFF12C1DEFF6B
:104398000CD03351D8A409D038A902D0040E04D0C7
:1043A8000EB338A102D0070E336F3351D8A420D0F2
:1043B8000EB70E8D20EE2BF03151D9263251DA226C
:1043C80010EE1CF00A51E1260B51E222DECFE6FF87
:1043D800DECFE6FFDECFE6FFDECFE6FF20EE20F001
:1043E8000A51D9260B51DA224EC1DEFF4FC1DDFF3B
:1043F8003351D8A47AD131C115F032C116F04EC16B
:1044080017F04FC118F052EC6EF0010120EE06F0E3
:104418000A51D9260B51DA2215C0DEFF16C0DEFF7D
:1044280017C0DEFF18C0DEFF1C0E4E250E6E000EF4
:104438004F210F6EB4EC65F0010120EE0AF00A512D
:10444800D9260B51DA220EC0DEFF0FC0DEFF10C0E6
:10445800DEFF11C0DEFF0AC1D9FF0BC1DAFF31C18F
:10446800DEFF32C1DDFF20EE05F03151D926325191
:10447800DA2210EE02F00A51E1260B51E222DECFD9
:10448800E6FFDDCFE5FF20EE0EF00A51D9260B51ED
:10449800DA220EC1DFFF20EE0FF00A51D9260B51A8
:1044A800DA22000EDF6E20EE18F00A51D9260B51E1
:1044B800DA22DE6ADE6ADE6ADD6A20EE10F00A5170
:1044C800D9260B51DA22DE6ADE6ADE6ADD6A0EABB5
:1044D8000CD120EE0AF00A51D9260B51DA22DE500F
:1044E800DE10DE10DE10D8B400D120EE0AF00A513A
:1044F800D9260B51DA2210EE10F00A51E1260B51A1
:10450800E222DECFE6FFDECFE6FFDECFE6FFDECF3C
:10451800E6FF20EE09F03151D9263251DA22DECFFA
:104528000FF1DDCF10F10F51116F1051126F136B96
:10453800146B090ED8901137123713371437E82E39
:10454800F9D711C121F112C122F113C123F114C10C
:1045580024F120EE06F00A51D9260B51DA22DECFDB
:104568002DF1DECF2EF1DECF2FF1DECF30F120EEB0
:104578000AF00A51D9260B51DA22DECF29F1DECF13
:104588002AF1DECF2BF1DECF2CF134D00AC197F01F
:104598000BC198F02DC199F02EC19AF02FC19BF054
:1045A80030C19CF06CEC33F097C02DF198C02EF11F
:1045B80099C02FF19AC030F1010130512F112E11FD
:1045C80006E1020E2D5DD8B002D0020E336F2D2900
:1045D80009E12E2907E12F2905E13029D8A402D0C5
:1045E800010E336F2151295F22512A5B23512B5B26
:1045F80024512C5B3351D8A40AD02951215D2A516A
:1046080022592B5123592C512459D8A0BFD720EE19
:1046180014F00A51D9260B51DA222DC1DEFF2EC122
:10462800DEFF2FC1DEFF30C1DEFF3351D8A45DD0DD
:10463800FF0E29150F6F010E2A15106F000E2B158E
:10464800116F000E2C15126F0F511011111112114C
:10465800D8B44BD031C11AF032C11BF02DC11CF0B7
:104668002EC11DF02FC11EF030C11FF094EC64F074
:104678001AC01BF11BC01CF11CC01DF11DC01EF18E
:1046880001011B511C111D111E11D8A403D0020ECB
:10469800336F2BD029C10FF12AC110F12BC111F1B1
:1046A8002CC112F10A0E05D0D890123311331033F1
:1046B8000F33E82EF9D71B510F25136F1C5110210A
:1046C800146F1D511121156F1E511221166F20EE06
:1046D80018F00A51D9260B51DA2213C1DEFF14C192
:1046E800DEFF15C1DEFF16C1DEFF3351D8B408D096
:1046F8000AC1D9FF0BC1DAFF000EDE6E000EDD6EB7
:104708003351120098D2000E1200020E0301DA6F24
:10471800020E956F000E946F2C50D96EDA6A13EE64
:1047280000F00C0EDBCFE3FFE806FCE205510411B4
:1047380009E10205020E0359D8B004D00A0E02019D
:10474800E56F48D00B0E0201E56F02C32DF003C3DD
:104758002EF004C32FF005C330F00A0E05D0D89010
:1047680030322F322E322D32E82EF9D72DC036F0C6
:104778002EC037F02FC038F030C039F0365037101F
:1047880038103910D8A406D0010E3626000E37226C
:1047980038223922000E156E000E166E000E176EA6
:1047A800000E186E0F0E7DEC2FF020EE31F0040E87
:1047B800EBCFDBFFE806FCE23150D8A40BD036C0C3
:1047C80015F037C016F038C017F039C018F0130EBE
:1047D8007DEC2FF00301DF51D8A408D0090ED89042
:1047E800083709370A370B37E82EF9D708C315F009
:1047F80009C316F00AC317F00BC318F00201E551FC
:104808007DEC2FF020EE31F0040EEBCFDBFFE80655
:10481800FCE23150D8B409D02C50D96EDA6A0C0EAB
:10482800D926FF0EDF6EFF0E12002C50D96EDA6A01
:104838000C0ED926020EDF6E020E1200020E0301C4
:1048480095199411D8A433D00B0E0201E519D8A4F8
:1048580017D0230EF66EFA0EF76EF86A0900F5CF38
:104868002DF00900F5CF2EF001D821D00500FA6E01
:104878002D50FD6E2E50FE6EFF6AFA50FC0E12008F
:10488800230EF66EFA0EF76EF86A0900F5CF2DF0D2
:104898000900F5CF2EF001D80AD00500FA6E2D5088
:1048A800FD6E2E50FE6EFF6AFA50FE0E12002C505E
:1048B800D96EDA6ADECF00F3DDCF01F32C50D96E62
:1048C800DA6A060ED926DECF06F3DDCF07F3030139
:1048D80000512D6E01512E6E2F6A306A2D50025FE5
:1048E8002E50035B2F50045B3050055B0051945FE2
:1048F8000151955B06C30EF007C30FF000C310F01B
:1049080001C311F0250EF66EFA0EF76EF86A09006B
:10491800F5CF2DF00900F5CF2EF001D809D005000C
:10492800FA6E2D50FD6E2E50FE6EFF6AFA50120080
:1049380094519511D8A480D7020E956F000E946FEC
:10494800230EF66EFA0EF76EF86A0900F5CF2DF011
:104958000900F5CF2EF001D80AD00500FA6E2D50C7
:10496800FD6E2E50FE6EFF6AFA50FF0E1200230EE7
:10497800F66EFA0EF76EF86A0900F5CF2DF0090009
:10498800F5CF2EF001D80AD00500FA6E2D50FD6E35
:104998002E50FE6EFF6AFA50FF0E1200230EF66EBE
:1049A800FA0EF76EF86A0900F5CF2DF00900F5CF79
:1049B8002EF001D80AD00500FA6E2D50FD6E2E504B
:1049C800FE6EFF6AFA50FF0E12001F0B050AD8B4DC
:1049D80009D02C50D96EDA6A0C0ED926FE0EDF6E7D
:1049E800030E12002C50D96EDA6A0C0ED926030E6B
:1049F800DF6E000E0301616F000E626F0A0E636FB7
:104A0800000E646FEDD703016151621163116411E7
:104A1800D8B4DFD76107000E625B635B645B230E6B
:104A2800F66EFA0EF76EF86A0900F5CF2DF0090058
:104A3800F5CF2EF001D80AD00500FA6E2D50FD6E84
:104A48002E50FE6EFF6AFA50FF0E1200230EF66E0D
:104A5800FA0EF76EF86A0900F5CF2DF00900F5CFC8
:104A68002EF001D80AD00500FA6E2D50FD6E2E509A
:104A7800FE6EFF6AFA50FF0E12000301A76FA751DE
:104A8800D8B4AED70251031104110511D8A4CDD65C
:104A9800000E616F000E626F0A0E636F000E646F86
:104AA8000B0E0201E519D8A435D0230EF66EFA0EC6
:104AB800F76EF86A0900F5CF2DF00900F5CF2EF052
:104AC80001D80AD00500FA6E2D50FD6E2E50FE6EEC
:104AD800FF6AFA50FD0E1200230EF66EFA0EF76EFC
:104AE800F86A0900F5CF2DF00900F5CF2EF001D8AE
:104AF8000AD00500FA6E2D50FD6E2E50FE6EFF6A2C
:104B0800FA50FF0E12002C50D96EDA6A0C0ED92614
:104B1800040E65D7898C230EF66EFA0EF76EF86AC6
:104B28000900F5CF2DF00900F5CF2EF001D80AD0F5
:104B38000500FA6E2D50FD6E2E50FE6EFF6AFA507B
:104B4800FF0E12002C50D96EDA6A0C0ED926000E10
:104B5800DF6E010E0301DA6FD6D5030161516211D0
:104B680063116411D8B439D06107000E625B635BCE
:104B7800645B230EF66EFA0EF76EF86A0900F5CF3D
:104B88002DF00900F5CF2EF001D80AD00500FA6EF5
:104B98002D50FD6E2E50FE6EFF6AFA50FF0E120069
:104BA8000301A76FA751D8B41BD7898C230EF66EC3
:104BB800FA0EF76EF86A0900F5CF2DF00900F5CF67
:104BC8002EF001D8BFD70500FA6E2D50FD6E2E507D
:104BD800FE6EFF6AFA50FF0E1200000E156E000EF0
:104BE800166E000E176E000E186E050E7DEC2FF077
:104BF800898C230EF66EFA0EF76EF86A0900F5CF67
:104C08002DF00900F5CF2EF001D80AD00500FA6E74
:104C18002D50FD6E2E50FE6EFF6AFA50FF0E1200E8
:104C28002C50D96EDA6A0C0ED926FF0EDF6E010EF3
:104C38000301DA6FF8D52C50D96EDA6A0C0ED92632
:104C4800DF50000AD8B45FD5010AD8B45ED5030A8C
:104C5800D8B4F4D5010AD8B4D6D6070AD8B47DD7C3
:104C6800FA0AD8B4BAD7E3D7100EE319D8A418D1E2
:104C7800000E1A6E000E196E06EC6CF0140E02018E
:104C8800E36F000E0001D46FF60ED425D96EDA6AF0
:104C9800020EDA22BB0ED425E16EE26A030EE2228E
:104CA800DFCFE7FFD42BD451800A790FD8A0ECD7F7
:104CB800000E03019D6F000E0001D46F6D0ED42508
:104CC800D96EDA6A030EDA22FF0EDF6ED42BD451C6
:104CD800800A7D0FD8A0F2D70201E35135EC46F0E7
:104CE800040E0001D46FD4510A0D000EF324D96EBE
:104CF800040EF420DA6EDECF34F0DDCF35F0D45177
:104D08000A0D020EF324D96E040EF420DA6EDECFFB
:104D180036F0DDCF37F0D4510A0D040EF324D96EE6
:104D2800040EF420DA6EDECF38F0DDCF39F0D4513E
:104D38000A0D060EF324D96E040EF420DA6EDECFC7
:104D48003AF0DDCF3BF0000E3D6E0A0E3C6EFF0ED2
:104D58003F6E3E6871EC47F00001D4510A0D000E19
:104D6800F324D96E040EF420DA6EDECFBEF0DDCF68
:104D7800BFF0FD0EC06FFF0EC16FC051D4251D6E70
:104D8800000ED4BFFF0EC1211E6ED451080D670E50
:104D9800F3240E6EFE0EF4200F6EBCEC74F0D89067
:104DA8000E360F36D8900E360F360EC01FF00FC0D5
:104DB80020F012EC79F00001D4510A0D040EF3240E
:104DC800D96E040EF420DA6EDECFC2F0DDCFC3F068
:104DD800D890C331C56FC231C46F1D50C45F1E5017
:104DE800C55BBE51C425C76FBF51C521C86FD4511B
:104DF8000A0D020EF324D96E040EF420DA6EDECF0B
:104E0800BEF0DDCFBFF0D4C0C0F0C16BC0BFC107DA
:104E1800D890C037C137D890C037C137D4510A0DA0
:104E2800060EF324D96E040EF420DA6EDECFC2F03B
:104E3800DDCFC3F0D890C331C56FC231C46FC05144
:104E4800C45FC151C55BBE51C427BF51C5230C0EF9
:104E5800C425C96F000EC521CA6FC7C06AF0C8C093
:104E68006BF0C9C06CF0CAC06DF0D451080D670E64
:104E7800F3246E6FFE0EF4206F6FFF0E716F706972
:104E8800000E736F000E726FD451FD0F746F13EC28
:104E98006DF00001D42BD451800A7A0FD8A023D703
:104EA800020E4C18D8A465D04C2AC80E2A6E030EE0
:104EB8002B6EC60E2C6E030E2D6E94EC43F0C8C3F9
:104EC80028F0C9C329F0C6C32AF0C7C32BF0EE0ED9
:104ED8002C6E020E2D6EEC0E2E6E020E2F6E00EC56
:104EE80052F0EEC2B7F0EFC2B8F0ECC2B9F0EDC2C2
:104EF800BAF077EC70F00201E36F33D0000EE36F85
:104F08001200000E0001D46FBB0ED425D96EDA6AE8
:104F1800030EDA22F60ED425E16EE26A020EE222D0
:104F2800DFCFE7FFD42BD451800A790FD8A0ECD774
:104F3800000E0201F66F03019D51D8B406D0F60E9B
:104F4800226E020E236ED8EC6DF0F60E226E020E63
:104F5800236E1DEC68F07BEC6BF0000E0201E36F32
:104F680011D0E351150AD8B4C9D7030AD8B4C9D7A0
:104F780009D0050E4C18D8A402D04C2AEED74C50B4
:104F8800D8B44C2A0201E151D8B41200E1C2D3F0DE
:104F9800000EE16F0001D351800A7D0FD8B005D013
:104FA800D351800A820FD8B011D00201F551800A7E
:104FB800780FD8B004D0F551020DF3CFF5F2000107
:104FC800D3510201F503F3CFD3F003D0010E020150
:104FD800F56F140EE319D8A436D00301BC5184EC44
:104FE8007AF00001CE6F0301BD5184EC7AF0000124
:104FF800CF6FD3510E6E0F6A0EBE0F06CF0E106E16
:10500800116ACE0E126E136A54EC65F00001CE518F
:105018008AEC79F00301BC6F0001CF518AEC79F07A
:105028000301BD6FBB0E0001B26F030EB36FF80E24
:10503800B56F000EB46F0201E251C1EC61F0010ED0
:1050480003019D6F1200100EE3651200140EE36158
:1050580012000301C15184EC7AF00001CB6F030107
:10506800C05184EC7AF00001CC6F0301BF5184EC8D
:105078007AF00001CD6F110E0201E319D8A41FD0F8
:10508800D3C0BEF00001BF6BBEBFBF07CBC0C0F02E
:10509800C16BC0BFC107BE51C027BF51C123620E3B
:1050A800C0250E6E000EC1210F6E000E116E630E2C
:1050B800106EC7EC6EF00E280001CB6F45D0120EB3
:1050C800E319D8A41FD0D3C0BEF00001BF6BBEBF88
:1050D800BF07CCC0C0F0C16BC0BFC107BE51C0275D
:1050E800BF51C1230B0EC0250E6E000EC1210F6EDD
:1050F800000E116E0C0E106EC7EC6EF00E2800013B
:10510800CC6F22D0130EE319D8A41ED0D3C0BEF0A2
:105118000001BF6BBEBFBF07CDC0C0F0C16BC0BF31
:10512800C107BE51C027BF51C1231E0EC0250E6E38
:10513800000EC1210F6E000E116E1F0E106EC7EC0F
:105148006EF00E280001CD6FCBC0D0F0CCC0D1F0EE
:10515800CDC0D2F0D00E00016E6FD10E6F6FD20E9F
:10516800706FE7EC60F00301BE6F0001D0518AEC6C
:1051780079F00301C16F0001D1518AEC79F0030184
:10518800C06F0001D2518AEC79F00301BF6F0201B0
:10519800E35135EC46F012002E0E0001666F31D255
:1051A800250E6C19D8B409D02AC0D9FF2BC0DAFF54
:1051B8006CC0DFFF2A4A2B2A24D2000E6B6F000E28
:1051C8006A6F000E696F03D069852C4A2D2A2CC09E
:1051D800F6FF2DC0F7FFF86A0800F550300AD8B47A
:1051E800F3D72CC0F6FF2DC0F7FFF86A0800F5507A
:1051F800DAEC79F0D8A0C1D0000E00016B6F000E78
:105208006A6F6AC01DF06BC01EF0000E206E0A0E99
:105218001F6E12EC79F01DC06AF01EC06BF0D00E44
:105228003A6EFF0E3B6E2CC0F6FF2DC0F7FFF86AF2
:105238000800F5503C6E3D6A3A503C263B503D22F2
:105248003C5000016A273D506B232C4A2D2A2CC064
:10525800F6FF2DC0F7FFF86A0800F550DAEC79F090
:10526800D8A08BD0CED7698FA7D06651D96EDA6A0D
:10527800DECF62F0DDCF63F0020E66276251631164
:10528800D8A404D0C60E626FFF0E636F000E656F60
:10529800000E646F03D00001644B652B64516225D6
:1052A8003A6E655163213B6E3AC0F6FF3BC0F7FF8B
:1052B800000EF86E0F0EF76403D00800F55005D005
:1052C800F6CFE9FFF7CFEAFFEF500009D8A4E3D7FC
:1052D80000016A51645D6B516559D8B005D06451BD
:1052E8006A5F65516B5B0DD0000E6B6F000E6A6FC5
:1052F80008D02AC0D9FF2BC0DAFF200EDF6E2A4A59
:105308002B2A6A07D8A06B076A29F3E16B29D8B45E
:105318001CD0EFD762C0F6FF63C0F7FF000EF86E2F
:105328002AC0D9FF2BC0DAFF0F0EF76403D008009C
:10533800F55005D0F6CFE9FFF7CFEAFFEF50DF6E63
:105348000001624B632B2A4A2B2A6407D8A0650701
:105358006429E0E16529D8B454D1DCD76651D96E07
:10536800DA6ADF506C6F020E66276C0E626F636B31
:10537800000E656F010E646FABD72CC0F6FF2DC011
:10538800F7FF2C4A2D2AF86A0800F5CF6CF00001C7
:105398006C51000AD8B442D1630AD8B4DFD7070ADF
:1053A800D8B40AD00D0AD8B407D01A0AD8B45DD731
:1053B8000B0AD8B458D7D9D769BF12D06651D96E5D
:1053C800DA6ADECF67F0DDCF68F0020E662768AFD5
:1053D80047D0030E6913676D681FD8B0682B40D09B
:1053E8006651D96EDA6ADECF67F0DDCF68F0020E5B
:1053F800662736D0010E6C6F050E6C19D8B438D0FC
:105408006C51020DAF0EF324F66EFA0EF420F76E0F
:10541800F86A000EF8220900F550675D0900F5509A
:105428006859D8A025D06C2BE7D7010E6C6F040EF5
:105438006C19D8B41DD06C51020DCD0EF324F66E44
:10544800FA0EF420F76EF86A000EF8220900F550FB
:10545800675D0900F5506859D8A00AD06C2BE7D7CA
:105468006951800B000AD8B4C5D7800AD8B4DDD7F3
:105478006A516B11D8B409D069C03AF0030E3A16D4
:10548800D8B403D06A07D8A06B076C513A6E3B6A50
:105498006A513A5C3B50800A3C6E6B51800A3C581A
:1054A800D8B005D06C516A5F000E6B5B04D0000E5B
:1054B8006B6F000E6A6F69A51ED069C03AF0030EC3
:1054C8003A16D8B408D02AC0D9FF2BC0DAFF2D0E5F
:1054D800DF6E2A4A2B2A6A516B11D8B42DD02AC004
:1054E800D9FF2BC0DAFF300EDF6E2A4A2B2A6A0753
:1054F800D8A06B07F0D76A516B11D8B40FD02AC067
:10550800D9FF2BC0DAFF200EDF6E2A4A2B2A6A0742
:10551800D8A06B076A516B11D8A4F1D769C03AF0CB
:10552800030E3A16D8B408D02AC0D9FF2BC0DAFF28
:105538002D0EDF6E2A4A2B2A6CC061F05ED06151B5
:10554800020DAF0EF324F66EFA0EF420F76EF86A29
:10555800000EF8220900F5CF25F00A00F5CF26F055
:1055680067C023F068C024F066EC73F023C00EF027
:1055780024C00FF0000E116E0A0E106E42EC75F08A
:105588000E50300F00016C6F30D067C023F068C038
:1055980024F06151020DCD0EF324F66EFA0EF420BC
:1055A800F76EF86A000EF8220900F5CF25F00A0018
:1055B800F5CF26F066EC73F023500F0B0001606FF7
:1055C800690E6025F66EF76AFF0EF722F86A000E7C
:1055D800F8220800F5CF6CF008D06951800B000A5A
:1055E800D8B4ADD7800AD8B4D0D72AC0D9FF2BC039
:1055F800DAFF6CC0DFFF2A4A2B2A61076129D8A489
:10560800ECD72CC0F6FF2DC0F7FF2C4A2D2AF86ADC
:105618000800F5CF6CF06C51D8A4C2D52AC0D9FFC8
:105628002BC0DAFF000EDF6E1200B8C0D9FFB9C078
:10563800DAFFDECFCFF0DDCFD0F0BA51BB11BC110D
:10564800BD11D8A42DD020EE0BF0CF51D926D051C2
:10565800DA22DECFC7F0DECFC8F0DECFC9F0DECF6A
:10566800CAF0C751C811C911CA11D8B410D020EE58
:1056780013F0CF51D926D051DA22DE50C75DDE5063
:10568800C859DE50C959DE50CA59D8A05AD0010E9F
:10569800C76F000EC86F000EC96F000ECA6F51D0D9
:1056A800B8C097F0B9C098F0BAC099F0BBC09AF0EA
:1056B800BCC09BF0BDC09CF06CEC33F097C0D1F03F
:1056C80098C0D2F099C0D3F09AC0D4F0D451D31175
:1056D800D2110DE1020ED15DD8B009D0010EB86F1C
:1056E800000EB96F000EBA6F000EBB6F1200D12901
:1056F80010E1D2290EE1D3290CE1D429D8A409D08C
:10570800D1C0B8F0D2C0B9F0D3C0BAF0D4C0BBF0A1
:10571800120020EE13F0CF51D926D051DA22DE50F4
:10572800D15DDE50D259DE50D359DE50D459D8A0BD
:10573800E7D7BAC0C7F0BBC0C8F0BCC0C9F0BDC08D
:10574800CAF020EE0FF0CF51D926D051DA22DE5020
:10575800DE10DE10DE10D8A409D0000EB86F000EDF
:10576800B96F000EBA6F000EBB6F1200000ECB6F40
:10577800000ECC6F000ECD6F000ECE6FBA51C71958
:1057880009E1BB51C81906E1BC51C91903E1BD5172
:10579800CA19D8A485D0010EC725CB6F000EC82121
:1057A800CC6F000EC921CD6F000ECA21CE6F20EE3E
:1057B80013F0CF51D926D051DA22DE50CB5DDE501E
:1057C800CC59DE50CD59DE50CE59D8A008D0020EA3
:1057D800CB6F000ECC6F000ECD6F000ECE6FB8C031
:1057E80097F0B9C098F0CBC099F0CCC09AF0CDC072
:1057F8009BF0CEC09CF06CEC33F097C0D1F098C011
:10580800D2F099C0D3F09AC0D4F0D105D211D311F7
:10581800D411D8B475D7D12907E1D22905E1D32904
:1058280003E1D429D8B46CD7D151D211D311D411F2
:10583800D8B436D020EE0BF0CF51D926D051DA2289
:10584800DECFD1F0DECFD2F0DECFD3F0DECFD4F092
:10585800D451D311D21104E1020ED15DD8A018D0D1
:1058680020EE13F0CF51D926D051DA22DE50D15D87
:10587800DE50D259DE50D359DE50D459D8B008D0B2
:10588800D1C0C7F0D2C0C8F0D3C0C9F0D4C0CAF0E4
:10589800000ECB6F000ECC6F000ECD6F000ECE6FDA
:1058A800CB51CC11CD11CE11D8A467D0C7C0CBF045
:1058B800C8C0CCF0C9C0CDF0CAC0CEF0010ECB270D
:1058C800000ECC23CD23CE2320EE13F0CF51D926C2
:1058D800D051DA22DE50CB5DDE50CC59DE50CD59A6
:1058E800DE50CE59D8A010D0020ECB6F000ECC6F70
:1058F800000ECD6F000ECE6FCA51C911C81104E158
:10590800020EC75DD8A029D7B8C097F0B9C098F0E3
:10591800CBC099F0CCC09AF0CDC09BF0CEC09CF023
:105928006CEC33F097C0D1F098C0D2F099C0D3F0A6
:105938009AC0D4F0D151D211D311D411D8B41DD0FA
:10594800D105D211D311D411D8B4DAD6D12907E1AF
:10595800D22905E1D32903E1D429D8B4D1D6C75136
:10596800CB19ACE1C851CC19A9E1C951CD19A6E1AF
:10597800CA51CE19D8B4F1D6A1D7CFC097F0D0C0AC
:1059880098F0CBC099F0CCC09AF0CDC09BF0CEC0B7
:105998009CF0FF0E9D6FFF0E9E6FFF0E9F6FFF0E18
:1059A800A06F58EC2DF0C66FC651D8A41DD0BA51BF
:1059B800BB11BC11BD11D8B417D0CFC097F0D0C05F
:1059C80098F0BAC099F0BBC09AF0BCC09BF0BDC0BB
:1059D8009CF0CBC09DF0CCC09EF0CDC09FF0CEC057
:1059E800A0F058EC2DF0C66FC651D8A444D020EED4
:1059F8000BF0CF51D926D051DA22CBC0DEFFCCC074
:105A0800DEFFCDC0DEFFCEC0DEFF20EE0FF0CF51AF
:105A1800D926D051DA2210EE13F0CF51E126D05119
:105A2800E222FE0EE624C26FFF0EE620C36FFF0ED1
:105A3800E620C46FFF0EE620C56FDE50C25DDE5063
:105A4800C359DE50C459DE50C559D8A00BD020EE3A
:105A58000FF0CF51D926D051DA22DE06000EDE5AD9
:105A6800DE5ADE5A20EE04F0CF51D926D051DA2280
:105A7800000EDB8010D0C605D8B409D0010ECB6F5C
:105A8800000ECC6F000ECD6F000ECE6F04D0CB6928
:105A9800CC69CD69CE69CBC0B8F0CCC0B9F0CDC067
:105AA800BAF0CEC0BBF01200020EB76F9C519B112A
:105AB8009A1104E1020E995DD8A019D220EE13F0D4
:105AC8009751D9269851DA22DE50995DDE509A59BD
:105AD800DE509B59DE509C59D8A0FBD108D299C002
